:020000040800F2
:10000000100400209D01000801020008F901000809
:10001000FD010008F101000869030008000000006C
:1000200000000000000000000000000009020008BD
:10003000F501000800000000050200080D0200089C
:10004000B7010008B7010008B7010008B7010008B0
:10005000B7010008B7010008B7010008B7010008A0
:10006000B7010008B7010008B7010008B701000890
:10007000B7010008B7010008B7010008B701000880
:10008000B7010008B7010008B7010008B701000870
:10009000B7010008B7010008B7010008B701000860
:1000A000B7010008B7010008B7010008B701000850
:1000B000B7010008B7010008B7010008B701000840
:1000C000B7010008B7010008B7010008B701000830
:1000D000B7010008B7010008B7010008B701000820
:1000E000B7010008B7010008B7010008B701000810
:1000F000B7010008B7010008B7010008B701000800
:10010000B7010008B7010008B7010008B7010008EF
:10011000B7010008B7010008B7010008B7010008DF
:10012000B7010008B7010008B7010008B7010008CF
:10013000B7010008B7010008B7010008B7010008BF
:10014000B7010008B7010008B7010008B7010008AF
:10015000B7010008B7010008B7010008B70100089F
:10016000B7010008B7010008B7010008B70100088F
:10017000B7010008B7010008B7010008000000003F
:10018000B7010008B7010008DFF80CD000F018F83C
:10019000004800472104000810040020064880475A
:1001A00006480047FEE7FEE7FEE7FEE7FEE7FEE75C
:1001B000FEE7FEE7FEE7FEE71102000889010008FE
:1001C0001CB509480090094801900546009C06E0CE
:1001D000E06840F0010394E8070098471034AC420F
:1001E000F6D3FFF7D5FF0000D8040008F804000894
:1001F000FEE70000FEE70000FEE70000FEE700006B
:10020000FEE70000FEE70000FEE7000000F0AEB8E9
:1002100081B04EF68851CEF200010A6843F608001C
:1002200042F47002C4F202000A6050F8081C41F067
:10023000010140F8081C00BF50F8081C8907FBD5D5
:10024000016841F08001016000210091009A4F2A6D
:1002500006D800BF009A01320092009A502AF9D3C2
:10026000026842F090020260009100994F2905D87F
:1002700000990131009100995029F9D301684FF696
:10028000FF7221F00301016050F8081CCFF6F662FE
:10029000114040F8081C50F8081C21F4802140F857
:1002A000081C00210160026843F21002C2F2004201
:1002B00040F8042C416050F8081C41F4803140F8AB
:1002C000081C4FF6FF7100BF50F8082C920303D4AE
:1002D0000029A1F10101F7D150F8081C8903FBD5D1
:1002E000826B47F2000142F08052C4F20001826347
:1002F0000A6842F440420A6002680260026842F4FE
:1003000000420260026842F4A052026045F20842D4
:10031000C0F2407240F8042C50F8082C42F0807271
:1003200040F8082C50F8082C9201FBD50A6842F4DA
:1003300080320A604A68D203FCD50A6842F400326F
:100340000A6000BF4A689203FCD5016821F00301EE
:100350000160016841F00201016000BF0168090706
:10036000FCD501B070470000FEE7000040F2080035
:10037000C2F200000168002908BF70470168013916
:10038000016070472DE9F041D0F800E0D0F80CC0D2
:1003900000244FF00308002605E000BF0136102EB0
:1003A00004F1020412D023FA06F7FF07F6D008FA88
:1003B00004F72EEA070E01FA04F54EEA050E2CEAC0
:1003C000070702FA04F547EA050CE7E7C0F800E082
:1003D000C0F80CC0BDE8F0810129416814BF994301
:1003E00019434160B0B5D0F808C000214FF0030EAA
:1003F000002404E00134102C01F102010CD023FA96
:1004000004F5ED07F6D00EFA01F52CEA050C02FA18
:1004100001F54CEA050CEDE7C0F808C0B0BD0000DE
:1004200000F026F840F6014000F012F840F20044D7
:10043000C4F202042046012100220423FFF7A2FF98
:100440002046002100220423FFF7C6FFFEE700003C
:1004500043F6000300F01F018009C4F202034FF0CD
:10046000010CC2580CFA01F11143C1507047000051
:1004700040F20000C2F2000000684DF68361C4F251
:100480001B31A0FB01014FF0FF3000EB9140B0F1B8
:10049000807F11D24EF21001CEF2000148604EF67C
:1004A0002350CEF20000F0220270002207238A605F
:1004B0000B600270704700BFFEE702E008C8121F21
:1004C00008C1002AFAD170477047002001E001C13D
:1004D000121F002AFBD17047F8040008000000201A
:1004E00008000000BA040008000500080800002009
:1004F00008040000CA040008007A030A0000000093
:040000050800018965
:00000001FF
