:020000040800F2
:10000000100400209D010008950200088D020008E0
:1000100091020008F1010008B90300080000000087
:10002000000000000000000000000000B502000811
:10003000F50100080000000099020008B90200085C
:10004000B7010008B7010008B7010008B7010008B0
:10005000B7010008B7010008B7010008B7010008A0
:10006000B7010008B7010008B7010008B701000890
:10007000B7010008B7010008B7010008B701000880
:10008000B7010008B7010008B7010008B701000870
:10009000B7010008B7010008B7010008B701000860
:1000A000B7010008B7010008B7010008B701000850
:1000B000B7010008B7010008B7010008B701000840
:1000C000B7010008B7010008B7010008B701000830
:1000D000B7010008B7010008B7010008B701000820
:1000E000B7010008B7010008B7010008B701000810
:1000F000B7010008B7010008B7010008B701000800
:10010000B7010008B7010008B7010008B7010008EF
:10011000B7010008B7010008B7010008B7010008DF
:10012000B7010008B7010008B7010008B7010008CF
:10013000B7010008B7010008B7010008B7010008BF
:10014000B7010008B7010008B7010008B7010008AF
:10015000B7010008B7010008B7010008B70100089F
:10016000B7010008B7010008B7010008B70100088F
:10017000B7010008B7010008B7010008B70100087F
:10018000B7010008B7010008DFF80CD000F018F83C
:1001900000480047E9030008100400200648804793
:1001A00006480047FEE7FEE7FEE7FEE7FEE7FEE75C
:1001B000FEE7FEE7FEE7FEE7BD0200088901000852
:1001C0001CB509480090094801900546009C06E0CE
:1001D000E06840F0010394E8070098471034AC420F
:1001E000F6D3FFF7D5FF00009C040008BC0400080C
:1001F000FEE70000704700002DE9F041D1F80080D3
:1002000000234FF0030C4FF0010E00240FE000BF5D
:10021000C268AA43C260CA79C5689A402A43C260CC
:100220000134102C03F1020308BFBDE8F08128FA65
:1002300004F5ED07F4D006680CFA03F5AE4306604A
:100240000E79076806FA03F2013E3A43012E026076
:10025000DED88268EE43324082604A798E798768C0
:100260009A403A43826042680EFA04F7BA43426009
:1002700006FA04F2466892B232434260C8E70000D0
:10028000090481617047000081617047FEE700004A
:10029000FEE700007047000070470000002943F6A9
:1002A0003001C4F202010A680CBF22EA00001043C8
:1002B000086070477047000000F08AB882B04EF6C0
:1002C000885CCEF2000CDCF8002043F6000142F41A
:1002D0007002C4F20201CCF800200A684FF6FF70E9
:1002E00042F001020A6000228A600B68CFF6F660D5
:1002F0001840086043F21000C2F2004048600868ED
:1003000020F480200860CA6001920092086840F4DE
:1003100080300860086800F40030009001980130D7
:100320000190009818B90198B0F5A04FF2D1086873
:10033000800354BF0020012000900098012834D190
:10034000086C40F08050086447F20000C4F20000DE
:10035000026842F44042026088688860886840F41D
:1003600000408860886840F4A050886045F20840EA
:10037000C0F240704860086840F08070086000BFBC
:1003800008688001FCD540F20570C1F80004886857
:1003900020F003008860886840F00200886000BF99
:1003A000886800F00C000828FAD14FF000604CF883
:1003B000800C02B070470000FEE7000040F2080128
:1003C000C2F20001086000BF08680028FCD1704735
:1003D00040F20800C2F200000168002908BF70471F
:1003E000016801390160704782B040F20044C4F2F4
:1003F000020400F01FF802200121FFF74FFF042044
:10040000009040F20130019069462046FFF7F4FE6B
:1004100020460421FFF738FF4FF47A70FFF7CEFF34
:1004200020460421FFF72CFF4FF47A70FFF7C6FF38
:10043000EEE7000040F20000C2F20000006844F65F
:10044000D351C1F26201A0FB01014FF0FF3000EB7C
:100450009110B0F1807F11D24EF21001CEF2000166
:1004600048604EF62350CEF20000F02202700022C7
:1004700007238A600B600270704700BFFEE702E04E
:1004800008C8121F08C1002AFAD17047704700201F
:1004900001E001C1121F002AFBD17047C00400080F
:1004A00000000020080000007E040008C8040008C6
:1004B00008000020080400008E040008000000006E
:0804C000007A030A00000000AD
:040000050800018965
:00000001FF
