:020000040800F2
:10000000100400209D010008D1020008C902000868
:10001000CD020008C10200083904000800000000F9
:10002000000000000000000000000000D9020008ED
:10003000C502000800000000D5020008DD0200082B
:10004000B7010008B7010008B7010008B7010008B0
:10005000B7010008B7010008B7010008B7010008A0
:10006000B7010008B7010008B7010008B701000890
:10007000B7010008B7010008B7010008B701000880
:10008000B7010008B7010008B7010008B701000870
:10009000B7010008B7010008B7010008B701000860
:1000A000B7010008B7010008B7010008B701000850
:1000B000B7010008B7010008B7010008B701000840
:1000C000B7010008B7010008B7010008B701000830
:1000D000B7010008B7010008B7010008B701000820
:1000E000B7010008B7010008B7010008B701000810
:1000F000B7010008B7010008B7010008B701000800
:10010000B7010008B7010008B7010008B7010008EF
:10011000B7010008B7010008B7010008B7010008DF
:10012000B7010008B7010008B7010008B7010008CF
:10013000B7010008B7010008B7010008B7010008BF
:10014000B7010008B7010008B7010008B7010008AF
:10015000B7010008B7010008B7010008B70100089F
:10016000B7010008B7010008B7010008B70100088F
:10017000B7010008B7010008B7010008000000003F
:10018000B7010008B7010008DFF80CD000F018F83C
:100190000048004775050008100400200648804705
:1001A00006480047FEE7FEE7FEE7FEE7FEE7FEE75C
:1001B000FEE7FEE7FEE7FEE7E1020008890100082E
:1001C0001CB509480090094801900546009C06E0CE
:1001D000E06840F0010394E8070098471034AC420F
:1001E000F6D3FFF7D5FF0000280B0008480B0008E6
:1001F00070B588B040F6014000F0A6FA4FF4805088
:1002000000F0A2FA40F20044C4F2020420460221A7
:1002100000224FF40073002500F05EF92046002113
:1002200002224FF4007300F081F9204601214FF4BF
:100230000072012600F00EF904AC204600F05CFCD0
:10024000C720CDE9040540F24D1006904FF08040E4
:1002500021468DF81C5000F0F9FB01AC204600F05F
:10026000E9FB4FF0804001212246ADF80850ADF87F
:100270000460ADF80C5000F0A5FA4FF08040012169
:10028000A62200F0B5FB4FF080400121602200F073
:1002900093FB4FF080400121002200F0AFFB4FF0B4
:1002A000804000F087FA4FF0804000F0C9FB4FF02B
:1002B00080400121002200F09BFB08B070BD0000CF
:1002C000FEE70000FEE70000FEE70000FEE700009A
:1002D000FEE70000FEE70000FEE7000000F0AEB819
:1002E00081B04EF68851CEF200010A6843F608004C
:1002F00042F47002C4F202000A6050F8081C41F097
:10030000010140F8081C00BF50F8081C8907FBD504
:10031000016841F08001016000210091009A4F2A9C
:1003200006D800BF009A01320092009A502AF9D3F1
:10033000026842F090020260009100994F2905D8AE
:1003400000990131009100995029F9D301684FF6C5
:10035000FF7221F00301016050F8081CCFF6F6622D
:10036000114040F8081C50F8081C21F4802140F886
:10037000081C00210160026843F21002C2F2004230
:1003800040F8042C416050F8081C41F4803140F8DA
:10039000081C4FF6FF7100BF50F8082C920303D4DD
:1003A0000029A1F10101F7D150F8081C8903FBD500
:1003B000826B47F2000142F08052C4F20001826376
:1003C0000A6842F440420A6002680260026842F42D
:1003D00000420260026842F4A052026045F2084204
:1003E000C0F2407240F8042C50F8082C42F08072A1
:1003F00040F8082C50F8082C9201FBD50A6842F40A
:1004000080320A604A68D203FCD50A6842F400329E
:100410000A6000BF4A689203FCD5016821F003011D
:100420000160016841F00201016000BF0168090735
:10043000FCD501B070470000FEE7000040F2080064
:10044000C2F200000168002908BF70470168013945
:1004500001607047F0B5D0F820E0D0F824C0002348
:100460000F27002505E000BF0135082D03F1040327
:100470000CD022FA05F6F607F6D007FA03F62EEAB4
:10048000060601FA03F446EA040EEDE70823002409
:100490000F2504E00133102B04F104040CD022FAE0
:1004A00003F6F607F6D005FA04F62CEA060701FA79
:1004B00004F647EA060CEDE7C0F820E0C0F824C0D7
:1004C000F0BD00008162704781617047006908409B
:1004D00018BF0120704700002DE9F041D0F800E07E
:1004E000D0F80CC000244FF00308002605E000BF40
:1004F0000136102E04F1020412D023FA06F7FF078A
:10050000F6D008FA04F72EEA070E01FA04F54EEACF
:10051000050E2CEA070702FA04F547EA050CE7E79F
:10052000C0F800E0C0F80CC0BDE8F08101294168C6
:1005300014BF994319434160B0B5D0F808C00021F9
:100540004FF0030E002404E00134102C01F10201ED
:100550000CD023FA04F5ED07F6D00EFA01F52CEADB
:10056000050C02FA01F54CEA050CEDE7C0F808C0ED
:10057000B0BD000040F20046C4F2020600F0F4F8FC
:1005800040F6014000F0E0F830460121002204234B
:100590000124FFF7A1FF3046002100220423FFF7CA
:1005A000C5FF40F6024000F0CFF806F5806528460A
:1005B000002101220123FFF78FFF2846002101229D
:1005C0000223FFF789FF2846002101220423FFF7B9
:1005D00083FF2846002101220823FFF77DFF40F614
:1005E000014000F0B1F83046012100224FF4807341
:1005F000FFF772FF3046002100224FF48073FFF7AF
:1006000095FFFFF7F5FD40F20409C2F200094FF033
:1006100001084FF0010A4FF0010B17E0B9F8000094
:10062000B0F5F97F9CBF1E30A9F80000B9F80010A2
:100630004FF0804000F0C4F8B9F8000042084FF0D5
:100640008040012100F0D4F93C46B0462846012103
:10065000FFF73CFF074628460221FFF737FFBBF1B3
:10066000010F064608BF002F0CD0BBF1000F08BFDA
:10067000012F0FD140F20040C4F202000421FFF725
:1006800021FF06E040F20040C4F202000421FFF71F
:100690001BFFBB46BAF1010F08BF002E0ED0BAF106
:1006A000000F08BF012E12D140F20040C4F2020038
:1006B0004FF48071FFF706FF08E000BF40F20040F2
:1006C000C4F202004FF48071FFF7FEFEB2462846E6
:1006D0000421FFF7FBFEB8F1010F064608BF002E0C
:1006E00006D0B8F1000F08BF012E16D100220FE08E
:1006F000B9F80000FA2824BF1E38A9F80000B9F89C
:1007000000104FF0804000F05BF8B9F8000042089C
:100710004FF08040012100F06BF928460821FFF7D7
:10072000D5FE012C074608BF002F3FF477AF002C01
:100730003C46B0467FF48AAF012F3C46B0467FF47A
:1007400085AF00227BE7000043F6000300F01F01A5
:100750008009C4F202034FF0010CC2580CFA01F1F7
:100760001143C1507047000040F20000C2F2000087
:1007700000684DF68361C4F21B31A0FB01014FF00C
:10078000FF3000EB9140B0F1807F11D24EF21001AA
:10079000CEF2000148604EF62350CEF20000F02267
:1007A0000270002207238A600B600270704700BF4E
:1007B000FEE70000016841F0800101607047000021
:1007C000C1627047032988BF704780B5DFE801F038
:1007D00002AD4185016A21F001010162816921F0C8
:1007E000030181611188036A19430162016A0023D0
:1007F00021F002010162B2F804C0D0F820E020F438
:100800008061C4F2010399424EEA0C01016240F09A
:10081000D080016A21F0040101625188036A194302
:100820000162016A21F008010162D188036A19435B
:10083000016250F8041F21F480710160118903687E
:1008400019430160016821F4007101605189026857
:10085000ADE0016A21F480710162C16921F00301F8
:10086000C1611188036A43EA01210162016A002320
:1008700021F400710162B2F804C0D0F820E020F445
:100880008061C4F2010399424EEA0C21016240F0FA
:100890009080016A21F4806101625188036A43EA11
:1008A00001210162016A21F400610162D188036AB9
:1008B00043EA0121016250F8041F21F480510160D4
:1008C0001189036843EA01110160016821F40051B4
:1008D000016052890168120169E0016A21F48051C6
:1008E0000162C16921F44071C1611188036A43EA60
:1008F00001310162016A002321F400510162B2F862
:1009000004C0D0F820E020F48061C4F201039942D1
:100910004EEA0C3101624CD150F8041F21F48041A1
:10092000016012890168920141E0016A21F0100121
:100930000162816921F4407181611188036A43EA8F
:1009400001110162016A002321F020010162B2F865
:1009500004C0D0F820E020F48061C4F20103994281
:100960004EEA0C11016224D1016A21F040010162BA
:100970005188036A43EA01110162016A21F0800192
:100980000162D188036A43EA0111016250F8041F31
:1009900021F4806101601189036843EA81010160EB
:1009A000016821F4006101605289016892001143DD
:1009B0000160BDE880407047032988BF7047DFE8C9
:1009C00001F0020D050A50F8181F01E050F81C1F35
:1009D00021F0700107E050F81C1F01E050F8181FCB
:1009E00021F4E04112020160016811430160704787
:1009F00003299CBF00EB810042637047032988BF35
:100A00007047DFE801F0020D050A50F8181F01E0F9
:100A100050F81C1F21F0080107E050F81C1F01E0EE
:100A200050F8181F21F4006112020160016811439F
:100A300001607047002181604160016070470000E3
:100A4000016841F001010160704700000A8840F22E
:100A5000004C826240F6FF32C4F200029042C4F2BF
:100A6000010C0FDCB0F1804F19D040F20043C4F20A
:100A70000003984213D040F60003C4F200039842EA
:100A80000DD018E040F60043C4F20003984206D0AF
:100A9000604504D00023C4F2010398420BD10368DF
:100AA00023F0700303604B8802681A4302608A884F
:100AB00003681A43026080B541F20002D1F808E0F1
:100AC00020F48063C4F200029342C0F82CE007D007
:100AD000026822F440720260CA8803681A43026006
:100AE00040F48062624504BF097B0163416941F0C3
:100AF0000101416180BD000000214FF6FF72C0E995
:100B0000001182600173704702E008C8121F08C11B
:100B1000002AFAD170477047002001E001C1121F7E
:100B2000002AFBD170470000480B0008000000209D
:100B300008000000080B0008500B00080800002007
:100B400008040000180B0008007A030A4D01000099
:040000050800018965
:00000001FF
