:020000040800F2
:10000000200800209D010008250D00081D0D000896
:10001000210D000891020008FD12000800000000F8
:100020000000000000000000000000002D0D00088E
:100030009502000800000000290D0008310D00089D
:10004000B7010008B7010008B7010008B7010008B0
:10005000B7010008B7010008B7010008B7010008A0
:10006000B7010008B7010008B7010008B701000890
:10007000B7010008B7010008B7010008B701000880
:10008000B7010008B7010008B7010008B701000870
:10009000B7010008B7010008B7010008B701000860
:1000A000B7010008B7010008B7010008B701000850
:1000B000B7010008B7010008B7010008B701000840
:1000C000B7010008B7010008B7010008B701000830
:1000D000B7010008B7010008B7010008B701000820
:1000E000B7010008B7010008B7010008B701000810
:1000F000B7010008B7010008B7010008B701000800
:10010000B7010008B7010008B7010008B7010008EF
:10011000B7010008B7010008B7010008B7010008DF
:10012000B7010008B7010008B7010008B7010008CF
:10013000B7010008B7010008B7010008B7010008BF
:10014000B7010008B7010008B7010008B7010008AF
:10015000B7010008B7010008B7010008B70100089F
:10016000B7010008B7010008B7010008B70100088F
:10017000B7010008B7010008B7010008000000003F
:10018000B7010008B7010008DFF80CD000F068F8EC
:100190000048004701130008200800200648804757
:1001A00006480047FEE7FEE7FEE7FEE7FEE7FEE75C
:1001B000FEE7FEE7FEE7FEE7E90D0008890100081B
:1001C0002DE9F05F0546002092469B46884606468C
:1001D000814640241BE0284641464746224600F01F
:1001E0002FF853465A46C01A914110D3114618466B
:1001F000224600F016F82D1A67EB01084F462246FA
:100200000120002100F00DF817EB00094E41201EDF
:10021000A4F10104DFDC484631462A464346BDE8E6
:10022000F09F202A04DB203A00FA02F100207047F8
:100230009140C2F1200320FA03F319439040704724
:10024000202A04DB203A21FA02F00021704721FA2B
:1002500002F3D040C2F12002914008431946704792
:100260001CB509480090094801900546009C06E02D
:10027000E06840F0010394E8070098471034AC426E
:10028000F6D3FFF785FF0000E81300080814000804
:10029000FEE7000070470000B0B5044600F0EEF83D
:1002A000054640F20000C2F200000078611C18BF51
:1002B000044400BF00F0E2F8401BA042FAD3B0BDF6
:1002C0002DE9F04F82B000F13E4202F1FF72870546
:1002D00041F6004647EA9227C4F20206082243F696
:1002E000004EB04208BF0722C4F2010E072F38BFEC
:1002F0003A464FF0010A002600274FF0000800920E
:1003000008E000BF023708F10108202F06F10406BB
:1003100000F0AA800A680AFA08F412EA0409F1D087
:10032000D1F804C0BCF1120F00F298800AFA0CF266
:1003300012F0061F00F092800323826803FA07F58B
:10034000CB68AA43BB401A43826042684FEA1C1341
:10035000A24303FA08F34FEA480A6FEA050B1A436F
:100360004260C2688B6802EA0B0203FA0AF31A437E
:100370004CF01003122BC26013D16FF0030202EA9B
:100380005802024406F01C050F23D2F820C003FADD
:1003900005F40B692CEA0404AB4023431362D1F843
:1003A00004C002680CF0030302EA0B0203FA0AF32A
:1003B0001A435FEACC034FF0010A0260A2D5002283
:1003C00043F644030192C4F202031A684FF6084C44
:1003D00042F480421A601A68CFF6FF7C02F4804231
:1003E0000192019A28F00302724452F80C3006F090
:1003F0000C050F24AC40A343009C04FA05F52B43E5
:1004000042F80C30DEF800204B6842EA0905DC03B4
:1004100058BF22EA0905CEF80050DEF804209C03FC
:1004200042EA090558BF22EA0905CEF80450DEF871
:100430000820DC0242EA090543F60C4458BF22EAD0
:100440000905CEF80850C4F2010422689B0242EA72
:10045000090558BF22EA0905256053E70322BA407F
:100460006FEA020BBA467CE702B0BDE8F08F0000ED
:10047000002A08BF090481617047000040F218405B
:10048000C2F200000068704740F2000040F21841DC
:10049000C2F20000C2F2000100780A68104408604D
:1004A0007047000080B543F60040C4F202000168C6
:1004B00041F400710160016841F4806101600168EC
:1004C00041F480710160032000F074F8002000F016
:1004D00005F800F027F8002080BD000070B540F25C
:1004E0000006C2F2000640F208013278C2F20001B2
:1004F0004FF47A730968B3FBF2F20446B1FBF2F1F0
:10050000084600F0F5FB0F2C4FF0010508D838B96C
:100510004FF0FF3021460022002500F01FF87460E4
:10052000284670BD82B0002043F640010190C4F21D
:1005300002014A6842F480424A604A6802F48042FA
:100540000192019A0090086840F0805008600868A5
:1005500000F080500090009802B0704710B54EF641
:100560000C5CCEF2000CDCF80030C3F3022E8EF0EF
:100570000704042C28BF0424BEF103034FF0FF3E00
:100580000EFA04F438BF0023A14399400EFA03F396
:100590009A43114300F00F0200F160430901043A4D
:1005A00003F564436244002848BF02F10C0319704C
:1005B00010BD00004EF60C51CEF200010A684FF655
:1005C000FF031A4060F30A2242F0806040F0FD70A1
:1005D000086070472DE9F04F8BB0002800F086804E
:1005E0000446056890F8BD0328B9002084F8BC03D0
:1005F000204600F08FF8032084F8BD03E86BC005A7
:100600005CBF00202061206800F056FE206804F1E5
:100610001C0A0A90D4E90C5004F1040E9AE8C007B1
:100620009EE80E58CDE9085003A880E8C0030A9858
:100630008DE80058CDF81CA000F0E4FB002852D152
:1006400020680021002500F03FFE616861B30120B1
:1006500000230022C3EBC30304EB830787F83C208D
:10066000D3B20132A7F84230D3B2994287F83D00A5
:1006700087F83F50C7E911553D65EBD800200023AE
:10068000002200BFC3EBC30304EB830787F8FC2100
:100690000132D3B2994287F8FD0187F8FF01C7E91B
:1006A0008100C7F81002EDD8A06822680A90D4E94A
:1006B0000C5004F1140E04F1240AD4E903379EE827
:1006C00040589AE80007CDE9085002A880E8005891
:1006D00010460A9ACDE90076CDE90589CDF81CA02F
:1006E00000F024FC40B1022084F8BD030125284617
:1006F0000BB0BDE8F08F00BF0025012084F8385012
:1007000084F8BD03206800F001FC28460BB0BDE86A
:10071000F08F00000068B0F1A04F18BF7047B0B56F
:1007200086B0002543F630040195C4F20204206827
:1007300001A940F001002060206800F00100019054
:1007400001984FF4C05001900220CDE9020503202A
:1007500004900A2005900020C4F20200FFF7B0FDCB
:10076000606840F0800060600095606940F48040FF
:100770006061606900F480400090009806B0BDE8B8
:10078000B0407047002804BF012070472DE9F041B8
:1007900043F60808C4F202080446D8F8F8030D46E8
:1007A00000F00F00884207D288F8F853D8F8F80311
:1007B00000F00F00A84277D12068810717D54107C4
:1007C00005D5D8F8001041F4E051C8F80010010731
:1007D00005D5D8F8001041F46041C8F80010D8F8E9
:1007E0000010A26821F0F0011143C8F80010C00702
:1007F00040D1D8F8F80300F00F00A84207D988F8D4
:10080000F853D8F8F80300F00F00A8424CD1206844
:10081000410707D5D8F80010E26821F4E0511143F0
:10082000C8F80010000708D5D8F80000216920F4A6
:10083000604040EAC100C8F8000000F055F8D8F860
:10084000001041F2D632C1F30311C0F60002515C30
:1008500040F2080220FA01F140F20400C2F2000066
:100860000068C2F200021160FFF738FE0020BDE808
:10087000F08100BF6068811E022907D258F8081C69
:1008800089015CBF0120BDE8F08111E0012807D19A
:1008900058F8081C89035CBF0120BDE8F08107E01F
:1008A00058F8081C890703D40120BDE8F08100BF77
:1008B000D8F8001021F003010843C8F80000FFF742
:1008C000DDFD064641F28837D8F80000616800F087
:1008D0000C00B0EB810F8CD0FFF7D0FD801BB8422D
:1008E000F2D90320BDE8F08110B543F60404C4F248
:1008F0000204606800F00C0142F200400829C0F2D6
:10090000F40007D0042918BF10BD41F20020C0F246
:100910007A0010BD216801F03F0221682368490276
:10092000C3F3881106D4A1FB00010023FFF748FCA4
:1009300007E000BF41F20020C0F27A004843B0FB5C
:10094000F2F021680222C1F3014102EB4101B0FB48
:10095000F1F010BD002804BF012070472DE9F041DF
:1009600082B00446007843F60006C007C4F20206CF
:100970000CD0B06800F00C00042840F08180306892
:10098000800303D56068002800F06081207880072C
:100990001BD5B06810F00C0F09D0B06800F00C0047
:1009A000082840F087807068400200F1838030683A
:1009B000800703D5E068012840F04881306821694C
:1009C00020F0F80040EAC10030602078000713D41E
:1009D000207840072AD4A569002D00F03281B06844
:1009E00000F00C00082840F0A180012D40F00E819D
:1009F000012002B0BDE8F0816069002840F20000EB
:100A0000C4F2472000F07E800121C0F8801EFFF76D
:100A100035FD0546706F8007DAD4FFF72FFD401BC8
:100A20000228F7D9032002B0BDE8F081306C5FEAFC
:100A3000C0080AD400200190306C40F0805030642F
:100A4000306C00F080500190019847F20007C4F22A
:100A500000073868C00547D4386840F480703860B3
:100A6000FFF70CFD054600BF3868C0053CD4FFF712
:100A700005FD401B0228F7D9032002B0BDE8F08134
:100A8000B06800F00C00082803D1706840023FF500
:100A900076AF6068B0F5803F07D0B0F5A02F40F08A
:100AA0009980306840F480203060306840F48030B5
:100AB000306099E0E06800285CD00020C4F2472054
:100AC00001210160FFF7DAFC054600BF30688007AE
:100AD0003FF574AFFFF7D2FC401B0228F6D9032084
:100AE00002B0BDE8F08100BFA068012805D005284C
:100AF00054D1306F40F004003067306F40F0010097
:100B0000306755E00021C0F8801EFFF7B7FC0546AE
:100B1000706F80077FF55CAFFFF7B0FC401B0228C9
:100B2000F6D9032002B0BDE8F08100BF0027C4F26F
:100B3000472700203866FFF7A1FC022D05460DD19E
:100B40003068800140F18680FFF798FC401B022846
:100B50004FF00300F4D902B0BDE8F08130688001A5
:100B60006FD5FFF78BFC401B02284FF00300F5D92F
:100B7000F1E700BF0020C4F2472000210160FFF729
:100B80007DFC0546306880077FF51FAFFFF776FCD8
:100B9000401B02284FF00300F4D9DCE7316F002836
:100BA00021F001013167316F21F00401316773D009
:100BB000FFF764FC054641F2883700BF306F8007BD
:100BC0007CD4FFF75BFC401BB842F7D9032002B08E
:100BD000BDE8F0813168002821F48031316031684E
:100BE00021F48021316073D0FFF748FC054600BF37
:100BF000306880033FF5CAAEFFF740FC401B642815
:100C0000F6D9032002B0BDE8F08100BF7068E16949
:100C100000F480028A4219D1216A00F03F028A4220
:100C200014D147F6C071626A014091420ED1A16AA7
:100C300000F440328A4209D1E16A00F070608842D3
:100C400004D1002002B0BDE8F08100BF012002B055
:100C5000BDE8F08104F11C052FCD084340EA821065
:100C6000D9034FF6FF729143A1F5803140EA056048
:100C70000843706001203866FFF700FC044600BF9F
:100C800030688001DDD4FFF7F9FB001B02284FF02C
:100C90000300F5D95FE700BFFFF7F0FB054641F21F
:100CA000883700BF306F800708D5FFF7E7FB401B90
:100CB000B8424FF00300F5D94DE700BFB8F1000F7F
:100CC0003FF589AE306C20F08050306483E600BF81
:100CD000FFF7D4FB054600BF306880037FF556AEB2
:100CE000FFF7CCFB401B64284FF00300F4D932E738
:100CF000411E0020B0EB116F1CBF012070474EF267
:100D00001002CEF2000251604EF62351CEF20001E5
:100D1000F0230B700721906011607047FEE7000020
:100D2000FEE70000FEE7000070470000704700008B
:100D3000FFF7AABBB0B592B0002443F64000CDE95E
:100D40000A44CDE908440594CDE90344CDE90144C2
:100D50000094C4F202000168022541F08051016054
:100D6000006800F080500090009847F20000009466
:100D7000C4F20000016841F480410160006800F4A1
:100D8000804000900098012006904FF4803007903A
:100D90004FF480000D9008200E904FF4A870CDE91C
:100DA0000F050720119006A80C95FFF7D3FD28B179
:100DB000EFF3108072B600BFFEE700BF0F20CDE951
:100DC00001054FF4A05004904FF48050059001A805
:100DD00005210394FFF7D6FC20B1EFF3108072B623
:100DE000FEE700BF12B0B0BD4EF68850CEF2000054
:100DF000016841F4700101604FF0006140F8801C0F
:100E00007047000080B50499DDF808E0012939D168
:100E1000816B4FF6BF7321F480318163C168CFF6D7
:100E2000BD731940C160C1680B9B21F44011012BB7
:100E3000C16003D1C16841F48011C16040F64151E5
:100E4000C0F203010B4600BF0269002A08D4026900
:100E5000002A05D4033B3FD00269B2F1FF3FF3DC27
:100E6000026942F0010202610269D20707D00269F9
:100E7000D20704D003392FD00269D207F4D1002160
:100E800036E000BFC16840F64153DDF820C0C0F233
:100E9000030341F04001C160194600BF0269002A06
:100EA00008D40269002A05D4033917D00269B2F1C7
:100EB000FF3FF3DC016941F0010101610169C907EC
:100EC0001CBF01695FEAC17104D0033B06D0016910
:100ED000C907F3D1002102E0032109E00321826B5D
:100EE000BCF1000F22F4803208BF02F58032826329
:100EF000BEF1010F07D1826842F00602826082686B
:100F000042F020028260084680BD00000146D0F811
:100F1000000E20F00300C1F8000ED1F8040840F0E4
:100F200002020020C1F80428704700002DE9F04FAC
:100F300081B0DDF844800C9F0022B8F1000FC0F8AA
:100F40000421C0F80821C0F80C21C0F81021C0F815
:100F50001421C0F81821C0F81C21C0F82021C0F8C5
:100F60002421C0F82821C0F82C21C0F83021C0F875
:100F70003421C0F83821C0F83C210BD0826B00F539
:100F8000006B22F400128263826B42F400228263BF
:100F900014E000BFD0F8042800F5006B42F0020214
:100FA000C0F80428826B42F400128263826B22F440
:100FB00000228263866B26F4802686630026C0F8B2
:100FC000006ED0F80068012FC0F8006806D1DBF889
:100FD0000070002B18BF47F0010703E0DBF800307A
:100FE00043F0030740F64154DDF834E0DDF8289083
:100FF000C0F203044FF48463C0F800780361234611
:101000000769BF0644BF07695FEA876704D5033BEA
:1010100012D00769BF06F3D40025102303610369CA
:10102000DB0644BF03695FEAC36308D5033C05D010
:101030000369DB06F3D402E00125EEE701254FF05A
:10104000000A0029CBF810A0CBF814A0CBF81CA004
:1010500000F00481D0F800394FF0006707EA13135D
:101060004FF67F324E1EC0F80039C0F810A9C0F804
:1010700008297BD08B1E032B06F0030972460095CE
:1010800004D22024B9F1000F3FD165E026F003041B
:1010900000234FF0904E4FF67F384FF0000C00BF0A
:1010A00000EB0C05D5F82079043C0EEAE777C5F88B
:1010B0002079C5F83039C5F82889D5F840790CF180
:1010C000800C0EEAE777C5F84079C5F85039C5F8C5
:1010D0004889D5F860790EEAE777C5F86079C5F8F0
:1010E0007039C5F86889D5F880790EEAE777C5F8D0
:1010F0008079C5F89039C5F88889D1D1DDF8448068
:101100000CF12004B9F1000F26D000F510673D590D
:101110004FF0904C0CEAE5753B193D5100244FF619
:101120007F3EB9F1010F1C61C3F808E014D01D6ABD
:10113000B9F1020F0CEAE5771F621C63C3F828E0DF
:101140000AD01F6C4FF0904505EAE7771F6400272F
:101150001F654FF67F379F64DDF82890009D0029BA
:1011600096464FF67F324FF0006777D0D0F8003BBD
:10117000002E07EA1313C0F8003B4FF00003C0F83D
:10118000103BC0F8082B69D00239032906F0030C84
:1011900004D22023BCF1000F3BD15FE026F0030412
:1011A0004FF090474FF67F36002100954518D5F84F
:1011B000202B043C07EAE272C5F8202BC5F8303B2F
:1011C000C5F8286BD5F8402B01F1800107EAE272DF
:1011D000C5F8402BC5F8503BC5F8486BD5F8602BD7
:1011E00007EAE272C5F8602BC5F8703BC5F8686B7A
:1011F000D5F8802B07EAE272C5F8802BC5F8903B42
:10120000C5F8886BD2D1009D01F12003BCF1000F1D
:1012100024D000F53062D6584FF0904707EAE676C2
:10122000D118D65000264FF67F33BCF1010F0E6166
:101230008B6013D00A6ABCF1020F07EAE2720A62FD
:101240000E638B620AD00A6C4FF0904303EAE2729D
:101250000A6400220A654FF67F328A64DBF81010B8
:10126000B9F1000F21F48071CBF810106FF08041BC
:10127000C0F818A0416103D1816941F0100181617A
:10128000816943F60002C8F23C021143BEF1000F2F
:10129000816103D0816941F008018161B8F1010FDA
:1012A00005D1816941F0804141F004018161284606
:1012B00001B0BDE8F08F00000146806820F0010217
:1012C00000208A6070470000C268012922F0C042F5
:1012D000C26007D000291CBF012070474FF0804139
:1012E00002E000BF4FF0005180B5C2681143C160F9
:1012F0003220FEF7D1FF002080BD0000FEE7000095
:1013000086B040F20044C4F20204FFF7CBF8FFF7C6
:1013100011FD002543F6300005950095C4F202004A
:101320000168002241F0800101600168042601F09B
:101330008001009100990095016841F0020101606F
:10134000016801F00201009100990095016841F0E7
:10135000010101600068042100F001000090009884
:101360002046FFF785F80120CDE9020501A92046B6
:1013700001960495FEF7A4FF40F21000C2F20000AF
:101380004FF0A041C0E900160221C0E90315C0E9F1
:101390000615C0E90855C0E90B55FFF71BF928B140
:1013A000EFF3108072B600BFFEE700BF20460421B5
:1013B0000022FFF75DF8F9E702E008C8121F08C134
:1013C000002AFAD170477047002001E001C1121FC6
:1013D000002AFBD17047000000000000000001025D
:1013E0000304060708090000081400080000002094
:1013F00010000000B81300081814000810000020A6
:1014000010080000C81300080100000010000000D0
:081410000024F40000000000BC
:040000050800018965
:00000001FF
