:020000040800F2
:10000000780400209D010008F5010008ED010008BA
:10001000F1010008E50100085D0300080000000090
:10002000000000000000000000000000FD010008CA
:10003000E901000800000000F901000801020008C1
:10004000B7010008B7010008B7010008B7010008B0
:10005000B7010008B7010008B7010008B7010008A0
:10006000B7010008B7010008B7010008B701000890
:10007000B7010008B7010008B7010008B701000880
:10008000B7010008B7010008B7010008B701000870
:10009000B7010008B7010008B7010008B701000860
:1000A000B7010008B7010008B7010008B701000850
:1000B000B7010008B7010008B7010008B701000840
:1000C000B7010008B7010008B7010008B701000830
:1000D000B7010008B7010008B7010008B701000820
:1000E000B7010008B7010008B7010008B701000810
:1000F000B7010008B7010008B7010008B701000800
:10010000B7010008B7010008B7010008B7010008EF
:10011000B7010008B7010008B7010008B7010008DF
:10012000B7010008B7010008B7010008B7010008CF
:10013000B7010008B7010008B7010008B7010008BF
:10014000B7010008B7010008B7010008B7010008AF
:10015000B7010008B7010008B7010008B70100089F
:10016000B7010008B7010008B7010008B70100088F
:10017000B7010008B7010008B7010008000000003F
:10018000B7010008B7010008DFF80CD000F018F83C
:1001900000480047CD040008780400200648804746
:1001A00006480047FEE7FEE7FEE7FEE7FEE7FEE75C
:1001B000FEE7FEE7FEE7FEE705020008890100080A
:1001C000064C074D06E0E06840F0010394E80700A4
:1001D00098471034AC42F6D3FFF7DAFF78060008F0
:1001E00098060008FEE70000FEE70000FEE70000BA
:1001F000FEE70000FEE70000FEE70000FEE700006B
:1002000000F000B981B04EF68851CEF200010A68C4
:1002100043F6080042F47002C4F202000A6050F88B
:10022000081C41F0010140F8081C00BF50F8081CF0
:100230008907FBD5016841F0800101600021009130
:10024000009A4F2A06D800BF009A01320092009A05
:10025000502AF9D3026842F090020260009100999E
:100260004F2905D800990131009100995029F9D3FF
:1002700001684FF6FF7221F00301016050F8081C7D
:10028000CFF6F662114040F8081C50F8081C21F423
:10029000802140F8081C00210160026843F210022E
:1002A000C2F2004240F8042C416050F8081C41F4AE
:1002B000803140F8081C4FF6FF7100BF50F8082C41
:1002C000920303D40029A1F10101F7D150F8081CD1
:1002D0008903FBD5826B47F2000142F08052C4F2E1
:1002E000000182630A6842F440420A6002680260C8
:1002F000026842F400420260026842F4A0520260C6
:1003000045F20842C0F2407240F8042C50F8082C24
:1003100042F0807240F8082C50F8082C9201FBD56E
:100320000A6842F480320A604A68D203FCD50A683F
:1003300042F400320A6000BF4A689203FCD50168AB
:1003400021F003010160016841F00201016000BF7A
:1003500001680907FCD501B070470000FEE7000006
:1003600040F2040100EB4000C2F2000101EB800109
:10037000D1E9010100F054B8F0B581B040F20406B3
:100380006FF00B07C2F20006F1198889D1E9044524
:1003900000F02EF92046012100222B4600F048F8FB
:1003A0002046002100222B4600F06CF80C37602F0D
:1003B000EAD1D6E9010100F031F86FF00B0400BF7B
:1003C0003119D1E9070100F02BF80C34542CF7D186
:1003D00001B0F0BD40F2040100EB4000C2F20001A8
:1003E00001EB8001D1E9010100F018B84FF47A71F6
:1003F000414340F27000C2F2000001600168002930
:10040000FCD1704740F27000C2F200000168002980
:1004100008BF704701680139016070478162704709
:10042000816170470069084018BF012070470000D3
:100430002DE9F041D0F800E0D0F80CC000244FF0D6
:100440000308002605E000BF0136102E04F1020467
:1004500012D023FA06F7FF07F6D008FA04F72EEABF
:10046000070E01FA04F54EEA050E2CEA070702FA18
:1004700004F547EA050CE7E7C0F800E0C0F80CC057
:10048000BDE8F081B0B50129416814BF9943194313
:100490004160D0F808C000214FF0030E002404E0B2
:1004A0000134102C01F102010CD023FA04F5ED0700
:1004B000F6D00EFA01F52CEA050C02FA01F54CEA29
:1004C000050CEDE7C0F808C0B0BD000040F600081C
:1004D000C4F2020800F09CF8FFF74EFF40F602401D
:1004E00000F086F840460021012201234FF0010967
:1004F000FFF79EFF40F6024000F07AF840460021E8
:1005000001220223FFF794FF40F6024000F070F84A
:100510004046002101220423FFF78AFF40F60240F3
:1005200000F066F84046002101220823FFF780FF13
:1005300001270124012606E00420FFF74BFFA9460E
:100540001420FFF753FF40460121FFF76BFF012EF8
:10055000054608BF002D07D0002E08BF012D07D18A
:100560000120FFF7FDFE02E00120FFF733FF2E46DA
:1005700040460221FFF756FF012C054608BF002D1B
:1005800008D0002C08BF012D08D10220FFF7E8FE9B
:1005900003E000BF0220FFF71DFF2C464046042168
:1005A000FFF740FF012F054608BF002D08D0002FA0
:1005B00008BF012D08D10320FFF7D2FE03E000BFE2
:1005C0000320FFF707FF2F4640460821FFF72AFFC9
:1005D000B9F1010F054608BF002DADD0B9F1000FEC
:1005E00008BF012DACD10420FFF7BAFEA7E7000039
:1005F00043F6000300F01F018009C4F202034FF02C
:10060000010CC2580CFA01F11143C15070470000AF
:1006100040F20000C2F2000000684DF68361C4F2AF
:100620001B31A0FB01014FF0FF3000EB9140B0F116
:10063000807F00D3FEE74EF21001CEF20001486049
:100640004EF62350CEF20000F02202700022072363
:100650008A600B600270704702E008C8121F08C170
:10066000002AFAD170477047002001E001C1121F33
:10067000002AFBD170470000980600080000002007
:1006800070000000580600080807000870000020ED
:100690000804000068060008007A030A020C000043
:1006A0000008024040000000030C0000000C024063
:1006B00000010000030C0000000C024000020000DA
:1006C000030C0000000C024000040000030C0000BA
:1006D000000C024000080000030C0000000C024067
:1006E00000100000030C0000000C0240002000007D
:1006F000030C0000000C024000400000030C00004E
:08070000000C02400080000023
:040000050800018965
:00000001FF
